{
    "_format": "hh-sol-artifact-1",
    "contractName": "LoyalToken",
    "sourceName": "contracts/loyaltToken.sol",
    "abi": [
        {
            "inputs": [],
            "stateMutability": "nonpayable",
            "type": "constructor"
        },
        {
            "inputs": [],
            "name": "InvalidShortString",
            "type": "error"
        },
        {
            "inputs": [
                {
                    "internalType": "string",
                    "name": "str",
                    "type": "string"
                }
            ],
            "name": "StringTooLong",
            "type": "error"
        },
        {
            "anonymous": false,
            "inputs": [
                {
                    "indexed": true,
                    "internalType": "address",
                    "name": "owner",
                    "type": "address"
                },
                {
                    "indexed": true,
                    "internalType": "address",
                    "name": "spender",
                    "type": "address"
                },
                {
                    "indexed": false,
                    "internalType": "uint256",
                    "name": "value",
                    "type": "uint256"
                }
            ],
            "name": "Approval",
            "type": "event"
        },
        {
            "anonymous": false,
            "inputs": [],
            "name": "EIP712DomainChanged",
            "type": "event"
        },
        {
            "anonymous": false,
            "inputs": [
                {
                    "indexed": true,
                    "internalType": "address",
                    "name": "previousOwner",
                    "type": "address"
                },
                {
                    "indexed": true,
                    "internalType": "address",
                    "name": "newOwner",
                    "type": "address"
                }
            ],
            "name": "OwnershipTransferred",
            "type": "event"
        },
        {
            "anonymous": false,
            "inputs": [
                {
                    "indexed": false,
                    "internalType": "uint256",
                    "name": "id",
                    "type": "uint256"
                }
            ],
            "name": "Snapshot",
            "type": "event"
        },
        {
            "anonymous": false,
            "inputs": [
                {
                    "indexed": true,
                    "internalType": "address",
                    "name": "from",
                    "type": "address"
                },
                {
                    "indexed": true,
                    "internalType": "address",
                    "name": "to",
                    "type": "address"
                },
                {
                    "indexed": false,
                    "internalType": "uint256",
                    "name": "value",
                    "type": "uint256"
                }
            ],
            "name": "Transfer",
            "type": "event"
        },
        {
            "inputs": [],
            "name": "DOMAIN_SEPARATOR",
            "outputs": [
                {
                    "internalType": "bytes32",
                    "name": "",
                    "type": "bytes32"
                }
            ],
            "stateMutability": "view",
            "type": "function"
        },
        {
            "inputs": [
                {
                    "internalType": "address",
                    "name": "owner",
                    "type": "address"
                },
                {
                    "internalType": "address",
                    "name": "spender",
                    "type": "address"
                }
            ],
            "name": "allowance",
            "outputs": [
                {
                    "internalType": "uint256",
                    "name": "",
                    "type": "uint256"
                }
            ],
            "stateMutability": "view",
            "type": "function"
        },
        {
            "inputs": [
                {
                    "internalType": "address",
                    "name": "spender",
                    "type": "address"
                },
                {
                    "internalType": "uint256",
                    "name": "amount",
                    "type": "uint256"
                }
            ],
            "name": "approve",
            "outputs": [
                {
                    "internalType": "bool",
                    "name": "",
                    "type": "bool"
                }
            ],
            "stateMutability": "nonpayable",
            "type": "function"
        },
        {
            "inputs": [
                {
                    "internalType": "address",
                    "name": "account",
                    "type": "address"
                }
            ],
            "name": "balanceOf",
            "outputs": [
                {
                    "internalType": "uint256",
                    "name": "",
                    "type": "uint256"
                }
            ],
            "stateMutability": "view",
            "type": "function"
        },
        {
            "inputs": [
                {
                    "internalType": "address",
                    "name": "account",
                    "type": "address"
                },
                {
                    "internalType": "uint256",
                    "name": "snapshotId",
                    "type": "uint256"
                }
            ],
            "name": "balanceOfAt",
            "outputs": [
                {
                    "internalType": "uint256",
                    "name": "",
                    "type": "uint256"
                }
            ],
            "stateMutability": "view",
            "type": "function"
        },
        {
            "inputs": [
                {
                    "internalType": "uint256",
                    "name": "amount",
                    "type": "uint256"
                }
            ],
            "name": "burn",
            "outputs": [],
            "stateMutability": "nonpayable",
            "type": "function"
        },
        {
            "inputs": [
                {
                    "internalType": "address",
                    "name": "account",
                    "type": "address"
                },
                {
                    "internalType": "uint256",
                    "name": "amount",
                    "type": "uint256"
                }
            ],
            "name": "burnFrom",
            "outputs": [],
            "stateMutability": "nonpayable",
            "type": "function"
        },
        {
            "inputs": [],
            "name": "decimals",
            "outputs": [
                {
                    "internalType": "uint8",
                    "name": "",
                    "type": "uint8"
                }
            ],
            "stateMutability": "view",
            "type": "function"
        },
        {
            "inputs": [
                {
                    "internalType": "address",
                    "name": "spender",
                    "type": "address"
                },
                {
                    "internalType": "uint256",
                    "name": "subtractedValue",
                    "type": "uint256"
                }
            ],
            "name": "decreaseAllowance",
            "outputs": [
                {
                    "internalType": "bool",
                    "name": "",
                    "type": "bool"
                }
            ],
            "stateMutability": "nonpayable",
            "type": "function"
        },
        {
            "inputs": [],
            "name": "eip712Domain",
            "outputs": [
                {
                    "internalType": "bytes1",
                    "name": "fields",
                    "type": "bytes1"
                },
                {
                    "internalType": "string",
                    "name": "name",
                    "type": "string"
                },
                {
                    "internalType": "string",
                    "name": "version",
                    "type": "string"
                },
                {
                    "internalType": "uint256",
                    "name": "chainId",
                    "type": "uint256"
                },
                {
                    "internalType": "address",
                    "name": "verifyingContract",
                    "type": "address"
                },
                {
                    "internalType": "bytes32",
                    "name": "salt",
                    "type": "bytes32"
                },
                {
                    "internalType": "uint256[]",
                    "name": "extensions",
                    "type": "uint256[]"
                }
            ],
            "stateMutability": "view",
            "type": "function"
        },
        {
            "inputs": [
                {
                    "internalType": "address",
                    "name": "account",
                    "type": "address"
                }
            ],
            "name": "getAddressDate",
            "outputs": [
                {
                    "internalType": "uint256",
                    "name": "",
                    "type": "uint256"
                }
            ],
            "stateMutability": "view",
            "type": "function"
        },
        {
            "inputs": [
                {
                    "internalType": "address",
                    "name": "spender",
                    "type": "address"
                },
                {
                    "internalType": "uint256",
                    "name": "addedValue",
                    "type": "uint256"
                }
            ],
            "name": "increaseAllowance",
            "outputs": [
                {
                    "internalType": "bool",
                    "name": "",
                    "type": "bool"
                }
            ],
            "stateMutability": "nonpayable",
            "type": "function"
        },
        {
            "inputs": [
                {
                    "internalType": "address",
                    "name": "to",
                    "type": "address"
                },
                {
                    "internalType": "uint256",
                    "name": "amount",
                    "type": "uint256"
                }
            ],
            "name": "mint",
            "outputs": [],
            "stateMutability": "nonpayable",
            "type": "function"
        },
        {
            "inputs": [],
            "name": "name",
            "outputs": [
                {
                    "internalType": "string",
                    "name": "",
                    "type": "string"
                }
            ],
            "stateMutability": "view",
            "type": "function"
        },
        {
            "inputs": [
                {
                    "internalType": "address",
                    "name": "owner",
                    "type": "address"
                }
            ],
            "name": "nonces",
            "outputs": [
                {
                    "internalType": "uint256",
                    "name": "",
                    "type": "uint256"
                }
            ],
            "stateMutability": "view",
            "type": "function"
        },
        {
            "inputs": [],
            "name": "owner",
            "outputs": [
                {
                    "internalType": "address",
                    "name": "",
                    "type": "address"
                }
            ],
            "stateMutability": "view",
            "type": "function"
        },
        {
            "inputs": [
                {
                    "internalType": "address",
                    "name": "owner",
                    "type": "address"
                },
                {
                    "internalType": "address",
                    "name": "spender",
                    "type": "address"
                },
                {
                    "internalType": "uint256",
                    "name": "value",
                    "type": "uint256"
                },
                {
                    "internalType": "uint256",
                    "name": "deadline",
                    "type": "uint256"
                },
                {
                    "internalType": "uint8",
                    "name": "v",
                    "type": "uint8"
                },
                {
                    "internalType": "bytes32",
                    "name": "r",
                    "type": "bytes32"
                },
                {
                    "internalType": "bytes32",
                    "name": "s",
                    "type": "bytes32"
                }
            ],
            "name": "permit",
            "outputs": [],
            "stateMutability": "nonpayable",
            "type": "function"
        },
        {
            "inputs": [],
            "name": "renounceOwnership",
            "outputs": [],
            "stateMutability": "nonpayable",
            "type": "function"
        },
        {
            "inputs": [],
            "name": "snapshot",
            "outputs": [],
            "stateMutability": "nonpayable",
            "type": "function"
        },
        {
            "inputs": [],
            "name": "symbol",
            "outputs": [
                {
                    "internalType": "string",
                    "name": "",
                    "type": "string"
                }
            ],
            "stateMutability": "view",
            "type": "function"
        },
        {
            "inputs": [],
            "name": "totalSupply",
            "outputs": [
                {
                    "internalType": "uint256",
                    "name": "",
                    "type": "uint256"
                }
            ],
            "stateMutability": "view",
            "type": "function"
        },
        {
            "inputs": [
                {
                    "internalType": "uint256",
                    "name": "snapshotId",
                    "type": "uint256"
                }
            ],
            "name": "totalSupplyAt",
            "outputs": [
                {
                    "internalType": "uint256",
                    "name": "",
                    "type": "uint256"
                }
            ],
            "stateMutability": "view",
            "type": "function"
        },
        {
            "inputs": [
                {
                    "internalType": "address",
                    "name": "recipient",
                    "type": "address"
                },
                {
                    "internalType": "uint256",
                    "name": "amount",
                    "type": "uint256"
                }
            ],
            "name": "transfer",
            "outputs": [
                {
                    "internalType": "bool",
                    "name": "",
                    "type": "bool"
                }
            ],
            "stateMutability": "nonpayable",
            "type": "function"
        },
        {
            "inputs": [
                {
                    "internalType": "address",
                    "name": "sender",
                    "type": "address"
                },
                {
                    "internalType": "address",
                    "name": "recipient",
                    "type": "address"
                },
                {
                    "internalType": "uint256",
                    "name": "amount",
                    "type": "uint256"
                }
            ],
            "name": "transferFrom",
            "outputs": [
                {
                    "internalType": "bool",
                    "name": "",
                    "type": "bool"
                }
            ],
            "stateMutability": "nonpayable",
            "type": "function"
        },
        {
            "inputs": [
                {
                    "internalType": "address",
                    "name": "newOwner",
                    "type": "address"
                }
            ],
            "name": "transferOwnership",
            "outputs": [],
            "stateMutability": "nonpayable",
            "type": "function"
        },
        {
            "inputs": [
                {
                    "internalType": "address",
                    "name": "account",
                    "type": "address"
                }
            ],
            "name": "updateAccountWithDecay",
            "outputs": [],
            "stateMutability": "nonpayable",
            "type": "function"
        }
    ],
    "bytecode": "0x6101606040523480156200001257600080fd5b506040518060400160405280600a8152602001692637bcb0b62a37b5b2b760b11b81525080604051806040016040528060018152602001603160f81b8152506040518060400160405280600a8152602001692637bcb0b62a37b5b2b760b11b815250604051806040016040528060038152602001624c544b60e81b8152508160039080519060200190620000a892919062000520565b508051620000be90600490602084019062000520565b505050620000db620000d5620001d360201b60201c565b620001d7565b620000f6600a836200022960201b620009de1790919060201c565b610120526200011381600b62000229602090811b620009de17901c565b61014052815160208084019190912060e052815190820120610100524660a052620001a160e05161010051604080517f8b73c3c69bb8fe3d512ecc4cf759cc79239f7b179b0ffacaa9a75d522b39400f60208201529081019290925260608201524660808201523060a082015260009060c00160405160208183030381529060405280519060200120905090565b60805250503060c05250620001bb336317d784006200027d565b600f80546001600160a01b03191633179055620006de565b3390565b600980546001600160a01b038381166001600160a01b0319831681179093556040519116919082907f8be0079c531659141344cd1fd0a4f28419497f9722a3daafe3b4186f6b6457e090600090a35050565b60006020835110156200024957620002418362000352565b905062000277565b8262000260836200039560201b62000a151760201c565b815162000271926020019062000520565b5060ff90505b92915050565b6001600160a01b038216620002d95760405162461bcd60e51b815260206004820152601f60248201527f45524332303a206d696e7420746f20746865207a65726f20616464726573730060448201526064015b60405180910390fd5b620002e76000838362000398565b8060026000828254620002fb9190620005dc565b90915550506001600160a01b038216600081815260208181526040808320805486019055518481527fddf252ad1be2c89b69c2b068fc378daa952ba7f163c4a11628f55a4df523b3ef910160405180910390a35050565b600080829050601f8151111562000380578260405163305a27a960e01b8152600401620002d09190620005f7565b80516200038d826200064f565b179392505050565b90565b620003b0838383620003b560201b62000a181760201c565b505050565b620003cd838383620003b060201b620005271760201c565b6001600160a01b038316620003f157620003e7826200041c565b620003b062000454565b6001600160a01b0382166200040b57620003e7836200041c565b62000416836200041c565b620003b0825b6001600160a01b0381166000908152600560209081526040808320918390529091205462000451919062000466565b62000466565b50565b6200046460066200044b60025490565b565b600062000472620004b5565b9050806200048084620004d3565b1015620003b0578254600180820185556000858152602080822090930193909355938401805494850181558252902090910155565b6000620004ce60086200051c60201b62000a601760201c565b905090565b8054600090620004e557506000919050565b81548290620004f79060019062000677565b815481106200050a576200050a62000691565b90600052602060002001549050919050565b5490565b8280546200052e90620006a7565b90600052602060002090601f0160209004810192826200055257600085556200059d565b82601f106200056d57805160ff19168380011785556200059d565b828001600101855582156200059d579182015b828111156200059d57825182559160200191906001019062000580565b50620005ab929150620005af565b5090565b5b80821115620005ab5760008155600101620005b0565b634e487b7160e01b600052601160045260246000fd5b60008219821115620005f257620005f2620005c6565b500190565b600060208083528351808285015260005b81811015620006265785810183015185820160400152820162000608565b8181111562000639576000604083870101525b50601f01601f1916929092016040019392505050565b8051602080830151919081101562000671576000198160200360031b1b821691505b50919050565b6000828210156200068c576200068c620005c6565b500390565b634e487b7160e01b600052603260045260246000fd5b600181811c90821680620006bc57607f821691505b602082108114156200067157634e487b7160e01b600052602260045260246000fd5b60805160a05160c05160e051610100516101205161014051611dcf62000739600039600061068d0152600061066201526000610f0201526000610eda01526000610e3501526000610e5f01526000610e890152611dcf6000f3fe608060405234801561001057600080fd5b506004361061018e5760003560e01c806379cc6790116100de578063981b24d011610097578063d505accf11610071578063d505accf14610347578063dd62ed3e1461035a578063f2fde38b1461036d578063fe1756101461038057600080fd5b8063981b24d01461030e578063a457c2d714610321578063a9059cbb1461033457600080fd5b806379cc6790146102a25780637ecebe00146102b557806384b0196e146102c85780638da5cb5b146102e357806395d89b41146102fe5780639711715a1461030657600080fd5b80633644e5151161014b57806342966c681161012557806342966c681461024b5780634ee2cd7e1461025e57806370a0823114610271578063715018a61461029a57600080fd5b80633644e5151461021d578063395093511461022557806340c10f191461023857600080fd5b806306fdde0314610193578063095ea7b3146101b1578063097ca8b3146101d457806318160ddd146101e957806323b872dd146101fb578063313ce5671461020e575b600080fd5b61019b6103a9565b6040516101a891906119a6565b60405180910390f35b6101c46101bf3660046119d0565b61043b565b60405190151581526020016101a8565b6101e76101e23660046119fa565b610455565b005b6002545b6040519081526020016101a8565b6101c4610209366004611a15565b61052c565b604051601281526020016101a8565b6101ed610560565b6101c46102333660046119d0565b61056f565b6101e76102463660046119d0565b610591565b6101e7610259366004611a51565b6105a7565b6101ed61026c3660046119d0565b6105b4565b6101ed61027f3660046119fa565b6001600160a01b031660009081526020819052604090205490565b6101e761060d565b6101e76102b03660046119d0565b610621565b6101ed6102c33660046119fa565b610636565b6102d0610654565b6040516101a89796959493929190611a6a565b6009546040516001600160a01b0390911681526020016101a8565b61019b6106dd565b6101e76106ec565b6101ed61031c366004611a51565b6106fc565b6101c461032f3660046119d0565b610727565b6101c46103423660046119d0565b6107a7565b6101e7610355366004611b00565b6107d9565b6101ed610368366004611b73565b61093d565b6101e761037b3660046119fa565b610968565b6101ed61038e3660046119fa565b6001600160a01b03166000908152600e602052604090205490565b6060600380546103b890611ba6565b80601f01602080910402602001604051908101604052809291908181526020018280546103e490611ba6565b80156104315780601f1061040657610100808354040283529160200191610431565b820191906000526020600020905b81548152906001019060200180831161041457829003601f168201915b5050505050905090565b600033610449818585610a64565b60019150505b92915050565b61045d610b88565b6001600160a01b0381166000908152600e6020526040812054906104818242611bf1565b9050620d2f00811061052757600061049c620d2f0083611c08565b9050600a60006104c1866001600160a01b031660009081526020819052604090205490565b905060006104d0846064611d06565b846104dc856064611bf1565b6104e69190611d06565b6104f09084611d12565b6104fa9190611c08565b905061050f8761050a8385611bf1565b610be2565b6105223061051d8385611bf1565b610d20565b505050505b505050565b6000610536610b88565b6105408442610deb565b61054a8342610deb565b610555848484610e0f565b506001949350505050565b600061056a610e28565b905090565b600033610449818585610582838361093d565b61058c9190611d31565b610a64565b610599610b88565b6105a38282610d20565b5050565b6105b13382610be2565b50565b6001600160a01b0382166000908152600560205260408120819081906105db908590610f53565b9150915081610602576001600160a01b038516600090815260208190526040902054610604565b805b95945050505050565b610615610b88565b61061f6000611050565b565b61062c8233836110a2565b6105a38282610be2565b6001600160a01b0381166000908152600c602052604081205461044f565b6000606080828080836106887f0000000000000000000000000000000000000000000000000000000000000000600a61111c565b6106b37f0000000000000000000000000000000000000000000000000000000000000000600b61111c565b60408051600080825260208201909252600f60f81b9b939a50919850469750309650945092509050565b6060600480546103b890611ba6565b6106f4610b88565b6105b16111c0565b600080600061070c846006610f53565b915091508161071d5760025461071f565b805b949350505050565b60003381610735828661093d565b90508381101561079a5760405162461bcd60e51b815260206004820152602560248201527f45524332303a2064656372656173656420616c6c6f77616e63652062656c6f77604482015264207a65726f60d81b60648201526084015b60405180910390fd5b6105558286868403610a64565b60006107b1610b88565b6107bb3342610deb565b6107c58342610deb565b6107cf838361121a565b5060019392505050565b834211156108295760405162461bcd60e51b815260206004820152601d60248201527f45524332305065726d69743a206578706972656420646561646c696e650000006044820152606401610791565b60007f6e71edae12b1b97f4d1f60370fef10105fa2faae0126114a169c64845d6126c98888886108588c611228565b6040805160208101969096526001600160a01b0394851690860152929091166060840152608083015260a082015260c0810186905260e00160405160208183030381529060405280519060200120905060006108b382611250565b905060006108c38287878761127d565b9050896001600160a01b0316816001600160a01b0316146109265760405162461bcd60e51b815260206004820152601e60248201527f45524332305065726d69743a20696e76616c6964207369676e617475726500006044820152606401610791565b6109318a8a8a610a64565b50505050505050505050565b6001600160a01b03918216600090815260016020908152604080832093909416825291909152205490565b610970610b88565b6001600160a01b0381166109d55760405162461bcd60e51b815260206004820152602660248201527f4f776e61626c653a206e6577206f776e657220697320746865207a65726f206160448201526564647265737360d01b6064820152608401610791565b6105b181611050565b60006020835110156109fa576109f3836112a5565b905061044f565b82828151610a0b92602001906118c0565b5060ff905061044f565b90565b6001600160a01b038316610a3757610a2f826112e3565b610527611315565b6001600160a01b038216610a4e57610a2f836112e3565b610a57836112e3565b610527826112e3565b5490565b6001600160a01b038316610ac65760405162461bcd60e51b8152602060048201526024808201527f45524332303a20617070726f76652066726f6d20746865207a65726f206164646044820152637265737360e01b6064820152608401610791565b6001600160a01b038216610b275760405162461bcd60e51b815260206004820152602260248201527f45524332303a20617070726f766520746f20746865207a65726f206164647265604482015261737360f01b6064820152608401610791565b6001600160a01b0383811660008181526001602090815260408083209487168084529482529182902085905590518481527f8c5be1e5ebec7d5bd14f71427d1e84f3dd0314c0f7b2291e5b200ac8c7c3b925910160405180910390a3505050565b6009546001600160a01b0316331461061f5760405162461bcd60e51b815260206004820181905260248201527f4f776e61626c653a2063616c6c6572206973206e6f7420746865206f776e65726044820152606401610791565b6001600160a01b038216610c425760405162461bcd60e51b815260206004820152602160248201527f45524332303a206275726e2066726f6d20746865207a65726f206164647265736044820152607360f81b6064820152608401610791565b610c4e82600083611323565b6001600160a01b03821660009081526020819052604090205481811015610cc25760405162461bcd60e51b815260206004820152602260248201527f45524332303a206275726e20616d6f756e7420657863656564732062616c616e604482015261636560f01b6064820152608401610791565b6001600160a01b0383166000818152602081815260408083208686039055600280548790039055518581529192917fddf252ad1be2c89b69c2b068fc378daa952ba7f163c4a11628f55a4df523b3ef910160405180910390a3505050565b6001600160a01b038216610d765760405162461bcd60e51b815260206004820152601f60248201527f45524332303a206d696e7420746f20746865207a65726f2061646472657373006044820152606401610791565b610d8260008383611323565b8060026000828254610d949190611d31565b90915550506001600160a01b038216600081815260208181526040808320805486019055518481527fddf252ad1be2c89b69c2b068fc378daa952ba7f163c4a11628f55a4df523b3ef910160405180910390a35050565b610df3610b88565b6001600160a01b039091166000908152600e6020526040902055565b600033610e1d8582856110a2565b61055585858561132e565b6000306001600160a01b037f000000000000000000000000000000000000000000000000000000000000000016148015610e8157507f000000000000000000000000000000000000000000000000000000000000000046145b15610eab57507f000000000000000000000000000000000000000000000000000000000000000090565b61056a604080517f8b73c3c69bb8fe3d512ecc4cf759cc79239f7b179b0ffacaa9a75d522b39400f60208201527f0000000000000000000000000000000000000000000000000000000000000000918101919091527f000000000000000000000000000000000000000000000000000000000000000060608201524660808201523060a082015260009060c00160405160208183030381529060405280519060200120905090565b60008060008411610f9f5760405162461bcd60e51b815260206004820152601660248201527504552433230536e617073686f743a20696420697320360541b6044820152606401610791565b610fa76114dd565b841115610ff65760405162461bcd60e51b815260206004820152601d60248201527f4552433230536e617073686f743a206e6f6e6578697374656e742069640000006044820152606401610791565b600061100284866114e8565b845490915081141561101b576000809250925050611049565b600184600101828154811061103257611032611d49565b90600052602060002001549250925050611049565b505b9250929050565b600980546001600160a01b038381166001600160a01b0319831681179093556040519116919082907f8be0079c531659141344cd1fd0a4f28419497f9722a3daafe3b4186f6b6457e090600090a35050565b60006110ae848461093d565b9050600019811461111657818110156111095760405162461bcd60e51b815260206004820152601d60248201527f45524332303a20696e73756666696369656e7420616c6c6f77616e63650000006044820152606401610791565b6111168484848403610a64565b50505050565b606060ff831461112f576109f383611593565b81805461113b90611ba6565b80601f016020809104026020016040519081016040528092919081815260200182805461116790611ba6565b80156111b45780601f10611189576101008083540402835291602001916111b4565b820191906000526020600020905b81548152906001019060200180831161119757829003601f168201915b5050505050905061044f565b60006111d0600880546001019055565b60006111da6114dd565b90507f8030e83b04d87bef53480e26263266d6ca66863aa8506aca6f2559d18aa1cb678160405161120d91815260200190565b60405180910390a1919050565b60003361044981858561132e565b6001600160a01b0381166000908152600c602052604090208054600181018255905b50919050565b600061044f61125d610e28565b8360405161190160f01b8152600281019290925260228201526042902090565b600080600061128e878787876115d2565b9150915061129b81611696565b5095945050505050565b600080829050601f815111156112d0578260405163305a27a960e01b815260040161079191906119a6565b80516112db82611d5f565b179392505050565b6001600160a01b038116600090815260056020908152604080832091839052909120546105b191906117e4565b6117e4565b61061f600661131060025490565b610527838383610a18565b6001600160a01b0383166113925760405162461bcd60e51b815260206004820152602560248201527f45524332303a207472616e736665722066726f6d20746865207a65726f206164604482015264647265737360d81b6064820152608401610791565b6001600160a01b0382166113f45760405162461bcd60e51b815260206004820152602360248201527f45524332303a207472616e7366657220746f20746865207a65726f206164647260448201526265737360e81b6064820152608401610791565b6113ff838383611323565b6001600160a01b038316600090815260208190526040902054818110156114775760405162461bcd60e51b815260206004820152602660248201527f45524332303a207472616e7366657220616d6f756e7420657863656564732062604482015265616c616e636560d01b6064820152608401610791565b6001600160a01b03848116600081815260208181526040808320878703905593871680835291849020805487019055925185815290927fddf252ad1be2c89b69c2b068fc378daa952ba7f163c4a11628f55a4df523b3ef910160405180910390a3611116565b600061056a60085490565b81546000906114f95750600061044f565b82546000905b80821015611546576000611513838361182e565b6000878152602090209091508590820154111561153257809150611540565b61153d816001611d31565b92505b506114ff565b60008211801561157257508361156f86611561600186611bf1565b600091825260209091200190565b54145b1561158b57611582600183611bf1565b9250505061044f565b50905061044f565b606060006115a083611850565b604080516020808252818301909252919250600091906020820181803683375050509182525060208101929092525090565b6000807f7fffffffffffffffffffffffffffffff5d576e7357a4501ddfe92f46681b20a0831115611609575060009050600361168d565b6040805160008082526020820180845289905260ff881692820192909252606081018690526080810185905260019060a0016020604051602081039080840390855afa15801561165d573d6000803e3d6000fd5b5050604051601f1901519150506001600160a01b0381166116865760006001925092505061168d565b9150600090505b94509492505050565b60008160048111156116aa576116aa611d83565b14156116b35750565b60018160048111156116c7576116c7611d83565b14156117155760405162461bcd60e51b815260206004820152601860248201527f45434453413a20696e76616c6964207369676e617475726500000000000000006044820152606401610791565b600281600481111561172957611729611d83565b14156117775760405162461bcd60e51b815260206004820152601f60248201527f45434453413a20696e76616c6964207369676e6174757265206c656e677468006044820152606401610791565b600381600481111561178b5761178b611d83565b14156105b15760405162461bcd60e51b815260206004820152602260248201527f45434453413a20696e76616c6964207369676e6174757265202773272076616c604482015261756560f01b6064820152608401610791565b60006117ee6114dd565b9050806117fa84611878565b1015610527578254600180820185556000858152602080822090930193909355938401805494850181558252902090910155565b600061183d6002848418611c08565b61184990848416611d31565b9392505050565b600060ff8216601f81111561044f57604051632cd44ac360e21b815260040160405180910390fd5b805460009061188957506000919050565b8154829061189990600190611bf1565b815481106118a9576118a9611d49565b90600052602060002001549050919050565b919050565b8280546118cc90611ba6565b90600052602060002090601f0160209004810192826118ee5760008555611934565b82601f1061190757805160ff1916838001178555611934565b82800160010185558215611934579182015b82811115611934578251825591602001919060010190611919565b50611940929150611944565b5090565b5b808211156119405760008155600101611945565b6000815180845260005b8181101561197f57602081850181015186830182015201611963565b81811115611991576000602083870101525b50601f01601f19169290920160200192915050565b6020815260006118496020830184611959565b80356001600160a01b03811681146118bb57600080fd5b600080604083850312156119e357600080fd5b6119ec836119b9565b946020939093013593505050565b600060208284031215611a0c57600080fd5b611849826119b9565b600080600060608486031215611a2a57600080fd5b611a33846119b9565b9250611a41602085016119b9565b9150604084013590509250925092565b600060208284031215611a6357600080fd5b5035919050565b60ff60f81b881681526000602060e081840152611a8a60e084018a611959565b8381036040850152611a9c818a611959565b606085018990526001600160a01b038816608086015260a0850187905284810360c0860152855180825283870192509083019060005b81811015611aee57835183529284019291840191600101611ad2565b50909c9b505050505050505050505050565b600080600080600080600060e0888a031215611b1b57600080fd5b611b24886119b9565b9650611b32602089016119b9565b95506040880135945060608801359350608088013560ff81168114611b5657600080fd5b9699959850939692959460a0840135945060c09093013592915050565b60008060408385031215611b8657600080fd5b611b8f836119b9565b9150611b9d602084016119b9565b90509250929050565b600181811c90821680611bba57607f821691505b6020821081141561124a57634e487b7160e01b600052602260045260246000fd5b634e487b7160e01b600052601160045260246000fd5b600082821015611c0357611c03611bdb565b500390565b600082611c2557634e487b7160e01b600052601260045260246000fd5b500490565b600181815b80851115611047578160001904821115611c4b57611c4b611bdb565b80851615611c5857918102915b93841c9390800290611c2f565b600082611c745750600161044f565b81611c815750600061044f565b8160018114611c975760028114611ca157611cbd565b600191505061044f565b60ff841115611cb257611cb2611bdb565b50506001821b61044f565b5060208310610133831016604e8410600b8410161715611ce0575081810a61044f565b611cea8383611c2a565b8060001904821115611cfe57611cfe611bdb565b029392505050565b60006118498383611c65565b6000816000190483118215151615611d2c57611d2c611bdb565b500290565b60008219821115611d4457611d44611bdb565b500190565b634e487b7160e01b600052603260045260246000fd5b8051602080830151919081101561124a5760001960209190910360031b1b16919050565b634e487b7160e01b600052602160045260246000fdfea26469706673582212201a4b15dec48a4d619bb393c2d2a57e00e3925338f1c7315716d6b91d6b7cffb664736f6c63430008090033",
    "linkReferences": {},
    "deployedLinkReferences": {}
}